{
  "contractName": "FTokenShield",
  "abi": [
    {
      "constant": true,
      "inputs": [],
      "name": "treeHeight",
      "outputs": [
        {
          "name": "",
          "type": "uint256"
        }
      ],
      "payable": false,
      "stateMutability": "view",
      "type": "function",
      "signature": "0x01e3e915"
    },
    {
      "constant": true,
      "inputs": [
        {
          "name": "",
          "type": "bytes32"
        }
      ],
      "name": "nullifiers",
      "outputs": [
        {
          "name": "",
          "type": "bytes32"
        }
      ],
      "payable": false,
      "stateMutability": "view",
      "type": "function",
      "signature": "0x2997e86b"
    },
    {
      "constant": true,
      "inputs": [],
      "name": "leafCount",
      "outputs": [
        {
          "name": "",
          "type": "uint256"
        }
      ],
      "payable": false,
      "stateMutability": "view",
      "type": "function",
      "signature": "0x30e69fc3"
    },
    {
      "constant": true,
      "inputs": [],
      "name": "burnVkId",
      "outputs": [
        {
          "name": "",
          "type": "bytes32"
        }
      ],
      "payable": false,
      "stateMutability": "view",
      "type": "function",
      "signature": "0x4b76fd6f"
    },
    {
      "constant": false,
      "inputs": [
        {
          "name": "leafValue",
          "type": "bytes32"
        }
      ],
      "name": "insertLeaf",
      "outputs": [
        {
          "name": "root",
          "type": "bytes32"
        }
      ],
      "payable": false,
      "stateMutability": "nonpayable",
      "type": "function",
      "signature": "0x5c8b80ab"
    },
    {
      "constant": true,
      "inputs": [],
      "name": "mintVkId",
      "outputs": [
        {
          "name": "",
          "type": "bytes32"
        }
      ],
      "payable": false,
      "stateMutability": "view",
      "type": "function",
      "signature": "0x69ae254a"
    },
    {
      "constant": true,
      "inputs": [],
      "name": "treeWidth",
      "outputs": [
        {
          "name": "",
          "type": "uint256"
        }
      ],
      "payable": false,
      "stateMutability": "view",
      "type": "function",
      "signature": "0x76c601b1"
    },
    {
      "constant": true,
      "inputs": [],
      "name": "verifierRegistry",
      "outputs": [
        {
          "name": "",
          "type": "address"
        }
      ],
      "payable": false,
      "stateMutability": "view",
      "type": "function",
      "signature": "0x86a23a6b"
    },
    {
      "constant": true,
      "inputs": [],
      "name": "owner",
      "outputs": [
        {
          "name": "",
          "type": "address"
        }
      ],
      "payable": false,
      "stateMutability": "view",
      "type": "function",
      "signature": "0x8da5cb5b"
    },
    {
      "constant": true,
      "inputs": [
        {
          "name": "",
          "type": "bytes32"
        }
      ],
      "name": "roots",
      "outputs": [
        {
          "name": "",
          "type": "bytes32"
        }
      ],
      "payable": false,
      "stateMutability": "view",
      "type": "function",
      "signature": "0xae6dead7"
    },
    {
      "constant": true,
      "inputs": [],
      "name": "_owner",
      "outputs": [
        {
          "name": "",
          "type": "address"
        }
      ],
      "payable": false,
      "stateMutability": "view",
      "type": "function",
      "signature": "0xb2bdfa7b"
    },
    {
      "constant": true,
      "inputs": [],
      "name": "simpleBatchTransferVkId",
      "outputs": [
        {
          "name": "",
          "type": "bytes32"
        }
      ],
      "payable": false,
      "stateMutability": "view",
      "type": "function",
      "signature": "0xc5d884f8"
    },
    {
      "constant": true,
      "inputs": [],
      "name": "latestRoot",
      "outputs": [
        {
          "name": "",
          "type": "bytes32"
        }
      ],
      "payable": false,
      "stateMutability": "view",
      "type": "function",
      "signature": "0xd7b0fef1"
    },
    {
      "constant": false,
      "inputs": [
        {
          "name": "leafValues",
          "type": "bytes32[]"
        }
      ],
      "name": "insertLeaves",
      "outputs": [
        {
          "name": "root",
          "type": "bytes32"
        }
      ],
      "payable": false,
      "stateMutability": "nonpayable",
      "type": "function",
      "signature": "0xdc52bf9f"
    },
    {
      "constant": false,
      "inputs": [
        {
          "name": "newOwner",
          "type": "address"
        }
      ],
      "name": "transferOwnership",
      "outputs": [],
      "payable": false,
      "stateMutability": "nonpayable",
      "type": "function",
      "signature": "0xf2fde38b"
    },
    {
      "constant": true,
      "inputs": [],
      "name": "transferVkId",
      "outputs": [
        {
          "name": "",
          "type": "bytes32"
        }
      ],
      "payable": false,
      "stateMutability": "view",
      "type": "function",
      "signature": "0xf64964fb"
    },
    {
      "inputs": [
        {
          "name": "_verifierRegistry",
          "type": "address"
        },
        {
          "name": "_verifier",
          "type": "address"
        },
        {
          "name": "_fToken",
          "type": "address"
        }
      ],
      "payable": false,
      "stateMutability": "nonpayable",
      "type": "constructor",
      "signature": "constructor"
    },
    {
      "anonymous": false,
      "inputs": [
        {
          "indexed": false,
          "name": "nullifier1",
          "type": "bytes32"
        },
        {
          "indexed": false,
          "name": "nullifier2",
          "type": "bytes32"
        }
      ],
      "name": "Transfer",
      "type": "event",
      "signature": "0x73df0525b275cd54192815d7317fa1d335edb65a891a81329852b3a13ca18181"
    },
    {
      "anonymous": false,
      "inputs": [
        {
          "indexed": false,
          "name": "nullifier",
          "type": "bytes32"
        }
      ],
      "name": "SimpleBatchTransfer",
      "type": "event",
      "signature": "0x04de17f79488e1096041b5c4046c8d0cec1492f521532e3275ef69be66c622d2"
    },
    {
      "anonymous": false,
      "inputs": [
        {
          "indexed": false,
          "name": "nullifier",
          "type": "bytes32"
        }
      ],
      "name": "Burn",
      "type": "event",
      "signature": "0x420254109828776b447479904f63ffd7cdc8e80c46a6a41400cc8674d9dab90d"
    },
    {
      "anonymous": false,
      "inputs": [
        {
          "indexed": false,
          "name": "newVerifierContract",
          "type": "address"
        }
      ],
      "name": "VerifierChanged",
      "type": "event",
      "signature": "0x00accbf0787bf565863b49aef6d6d8ff2f631f1da95c76e016aed7a21a11a7b7"
    },
    {
      "anonymous": false,
      "inputs": [
        {
          "indexed": false,
          "name": "mintVkId",
          "type": "bytes32"
        },
        {
          "indexed": false,
          "name": "transferVkId",
          "type": "bytes32"
        },
        {
          "indexed": false,
          "name": "simpleBatchTransferVkId",
          "type": "bytes32"
        },
        {
          "indexed": false,
          "name": "burnVkId",
          "type": "bytes32"
        }
      ],
      "name": "VkIdsChanged",
      "type": "event",
      "signature": "0x2dfe5ff88dc70616410f3e10ba23e8a66c378a57643eae184d7c51dfb92bcdc3"
    },
    {
      "anonymous": false,
      "inputs": [
        {
          "indexed": false,
          "name": "byShieldContract",
          "type": "uint256"
        },
        {
          "indexed": false,
          "name": "byVerifierContract",
          "type": "uint256"
        }
      ],
      "name": "GasUsed",
      "type": "event",
      "signature": "0x853720e5a853f80d6ab997d85a0ddd977b89b1e70cc4a1303975d10974c60e15"
    },
    {
      "anonymous": false,
      "inputs": [
        {
          "indexed": false,
          "name": "leafIndex",
          "type": "uint256"
        },
        {
          "indexed": false,
          "name": "leafValue",
          "type": "bytes32"
        },
        {
          "indexed": false,
          "name": "root",
          "type": "bytes32"
        }
      ],
      "name": "NewLeaf",
      "type": "event",
      "signature": "0x6a82ba2aa1d2c039c41e6e2b5a5a1090d09906f060d32af9c1ac0beff7af75c0"
    },
    {
      "anonymous": false,
      "inputs": [
        {
          "indexed": false,
          "name": "minLeafIndex",
          "type": "uint256"
        },
        {
          "indexed": false,
          "name": "leafValues",
          "type": "bytes32[]"
        },
        {
          "indexed": false,
          "name": "root",
          "type": "bytes32"
        }
      ],
      "name": "NewLeaves",
      "type": "event",
      "signature": "0x8ec50f97970775682a68d3c6f9caedf60fd82448ea40706b8b65d6c03648b922"
    },
    {
      "anonymous": false,
      "inputs": [
        {
          "indexed": false,
          "name": "leftInput",
          "type": "bytes27"
        },
        {
          "indexed": false,
          "name": "rightInput",
          "type": "bytes27"
        },
        {
          "indexed": false,
          "name": "output",
          "type": "bytes32"
        },
        {
          "indexed": false,
          "name": "nodeIndex",
          "type": "uint256"
        }
      ],
      "name": "Output",
      "type": "event",
      "signature": "0xc84edbd4893d9f5e7f1a0e9cef31bc608e285b8683036b7b0c62346c9785b60d"
    },
    {
      "anonymous": false,
      "inputs": [
        {
          "indexed": false,
          "name": "previousOwner",
          "type": "address"
        },
        {
          "indexed": false,
          "name": "newOwner",
          "type": "address"
        }
      ],
      "name": "OwnershipTransferred",
      "type": "event",
      "signature": "0x8be0079c531659141344cd1fd0a4f28419497f9722a3daafe3b4186f6b6457e0"
    },
    {
      "constant": false,
      "inputs": [
        {
          "name": "_verifier",
          "type": "address"
        }
      ],
      "name": "changeVerifier",
      "outputs": [],
      "payable": false,
      "stateMutability": "nonpayable",
      "type": "function",
      "signature": "0xcf04fb94"
    },
    {
      "constant": false,
      "inputs": [],
      "name": "close",
      "outputs": [],
      "payable": false,
      "stateMutability": "nonpayable",
      "type": "function",
      "signature": "0x43d726d6"
    },
    {
      "constant": true,
      "inputs": [],
      "name": "getVerifier",
      "outputs": [
        {
          "name": "",
          "type": "address"
        }
      ],
      "payable": false,
      "stateMutability": "view",
      "type": "function",
      "signature": "0x46657fe9"
    },
    {
      "constant": false,
      "inputs": [
        {
          "name": "_mintVkId",
          "type": "bytes32"
        },
        {
          "name": "_transferVkId",
          "type": "bytes32"
        },
        {
          "name": "_simpleBatchTransferVkId",
          "type": "bytes32"
        },
        {
          "name": "_burnVkId",
          "type": "bytes32"
        }
      ],
      "name": "setVkIds",
      "outputs": [],
      "payable": false,
      "stateMutability": "nonpayable",
      "type": "function",
      "signature": "0x33601002"
    },
    {
      "constant": true,
      "inputs": [],
      "name": "getFToken",
      "outputs": [
        {
          "name": "",
          "type": "address"
        }
      ],
      "payable": false,
      "stateMutability": "view",
      "type": "function",
      "signature": "0xf3d5a26a"
    },
    {
      "constant": false,
      "inputs": [
        {
          "name": "_proof",
          "type": "uint256[]"
        },
        {
          "name": "_inputs",
          "type": "uint256[]"
        },
        {
          "name": "_vkId",
          "type": "bytes32"
        },
        {
          "name": "_value",
          "type": "uint128"
        },
        {
          "name": "_commitment",
          "type": "bytes32"
        }
      ],
      "name": "mint",
      "outputs": [],
      "payable": false,
      "stateMutability": "nonpayable",
      "type": "function",
      "signature": "0xb6d0f8b1"
    },
    {
      "constant": false,
      "inputs": [
        {
          "name": "_proof",
          "type": "uint256[]"
        },
        {
          "name": "_inputs",
          "type": "uint256[]"
        },
        {
          "name": "_vkId",
          "type": "bytes32"
        },
        {
          "name": "_root",
          "type": "bytes32"
        },
        {
          "name": "_nullifierC",
          "type": "bytes32"
        },
        {
          "name": "_nullifierD",
          "type": "bytes32"
        },
        {
          "name": "_commitmentE",
          "type": "bytes32"
        },
        {
          "name": "_commitmentF",
          "type": "bytes32"
        }
      ],
      "name": "transfer",
      "outputs": [],
      "payable": false,
      "stateMutability": "nonpayable",
      "type": "function",
      "signature": "0x12644a79"
    },
    {
      "constant": false,
      "inputs": [
        {
          "name": "_proof",
          "type": "uint256[]"
        },
        {
          "name": "_inputs",
          "type": "uint256[]"
        },
        {
          "name": "_vkId",
          "type": "bytes32"
        },
        {
          "name": "_root",
          "type": "bytes32"
        },
        {
          "name": "_nullifier",
          "type": "bytes32"
        },
        {
          "name": "_commitments",
          "type": "bytes32[]"
        }
      ],
      "name": "simpleBatchTransfer",
      "outputs": [],
      "payable": false,
      "stateMutability": "nonpayable",
      "type": "function",
      "signature": "0xc8f1180f"
    },
    {
      "constant": false,
      "inputs": [
        {
          "name": "_proof",
          "type": "uint256[]"
        },
        {
          "name": "_inputs",
          "type": "uint256[]"
        },
        {
          "name": "_vkId",
          "type": "bytes32"
        },
        {
          "name": "_root",
          "type": "bytes32"
        },
        {
          "name": "_nullifier",
          "type": "bytes32"
        },
        {
          "name": "_value",
          "type": "uint128"
        },
        {
          "name": "_payTo",
          "type": "uint256"
        }
      ],
      "name": "burn",
      "outputs": [],
      "payable": false,
      "stateMutability": "nonpayable",
      "type": "function",
      "signature": "0x54f6a5f8"
    }
  ],
  "bytecode": "0x60806040526020600155640100000000600255600480547fffffffffff00000000000000000000000000000000000000000000000000000016905534801561004657600080fd5b50604051606080620029858339810180604052606081101561006757600080fd5b508051602080830151604090930151919291906100899033906100d6811b901c565b600080546001600160a01b03199081163317909155602980546001600160a01b03958616908316179055602a805493851693821693909317909255602b80549190931691161790556100f8565b600080546001600160a01b0319166001600160a01b0392909216919091179055565b61287d80620001086000396000f3fe608060405234801561001057600080fd5b50600436106101735760003560e01c806386a23a6b116100de578063c8f1180f11610097578063dc52bf9f11610071578063dc52bf9f14610663578063f2fde38b14610704578063f3d5a26a1461072a578063f64964fb1461073257610173565b8063c8f1180f14610515578063cf04fb9414610635578063d7b0fef11461065b57610173565b806386a23a6b146104055780638da5cb5b1461040d578063ae6dead714610415578063b2bdfa7b14610432578063b6d0f8b11461043a578063c5d884f81461050d57610173565b806346657fe91161013057806346657fe9146102cd5780634b76fd6f146102f157806354f6a5f8146102f95780635c8b80ab146103d857806369ae254a146103f557806376c601b1146103fd57610173565b806301e3e9151461017857806312644a79146101925780632997e86b1461027157806330e69fc31461028e578063336010021461029657806343d726d6146102c5575b600080fd5b61018061073a565b60408051918252519081900360200190f35b61026f60048036036101008110156101a957600080fd5b810190602081018135600160201b8111156101c357600080fd5b8201836020820111156101d557600080fd5b803590602001918460208302840111600160201b831117156101f657600080fd5b919390929091602081019035600160201b81111561021357600080fd5b82018360208201111561022557600080fd5b803590602001918460208302840111600160201b8311171561024657600080fd5b919350915080359060208101359060408101359060608101359060808101359060a00135610740565b005b6101806004803603602081101561028757600080fd5b5035610caf565b610180610cc1565b61026f600480360360808110156102ac57600080fd5b5080359060208101359060408101359060600135610cc7565b61026f6110b0565b6102d5611118565b604080516001600160a01b039092168252519081900360200190f35b610180611127565b61026f600480360360e081101561030f57600080fd5b810190602081018135600160201b81111561032957600080fd5b82018360208201111561033b57600080fd5b803590602001918460208302840111600160201b8311171561035c57600080fd5b919390929091602081019035600160201b81111561037957600080fd5b82018360208201111561038b57600080fd5b803590602001918460208302840111600160201b831117156103ac57600080fd5b91935091508035906020810135906040810135906001600160801b03606082013516906080013561112d565b610180600480360360208110156103ee57600080fd5b50356115b9565b61018061181f565b610180611825565b6102d561182b565b6102d561183a565b6101806004803603602081101561042b57600080fd5b5035611849565b6102d561185b565b61026f600480360360a081101561045057600080fd5b810190602081018135600160201b81111561046a57600080fd5b82018360208201111561047c57600080fd5b803590602001918460208302840111600160201b8311171561049d57600080fd5b919390929091602081019035600160201b8111156104ba57600080fd5b8201836020820111156104cc57600080fd5b803590602001918460208302840111600160201b831117156104ed57600080fd5b91935091508035906001600160801b03602082013516906040013561186a565b610180611c1d565b61026f600480360360c081101561052b57600080fd5b810190602081018135600160201b81111561054557600080fd5b82018360208201111561055757600080fd5b803590602001918460208302840111600160201b8311171561057857600080fd5b919390929091602081019035600160201b81111561059557600080fd5b8201836020820111156105a757600080fd5b803590602001918460208302840111600160201b831117156105c857600080fd5b919390928235926020810135926040820135929091608081019060600135600160201b8111156105f757600080fd5b82018360208201111561060957600080fd5b803590602001918460208302840111600160201b8311171561062a57600080fd5b509092509050611c23565b61026f6004803603602081101561064b57600080fd5b50356001600160a01b031661206d565b61018061211a565b6101806004803603602081101561067957600080fd5b810190602081018135600160201b81111561069357600080fd5b8201836020820111156106a557600080fd5b803590602001918460208302840111600160201b831117156106c657600080fd5b919080806020026020016040519081016040528093929190818152602001838360200280828437600092019190915250929550612120945050505050565b61026f6004803603602081101561071a57600080fd5b50356001600160a01b0316612479565b6102d561253d565b61018061254c565b60015481565b6107486125c3565b5a8152602d5487146107985760408051600160e51b62461bcd02815260206004820152600e6024820152600160921b6d125b98dbdc9c9958dd081d9ad25902604482015290519081900360640190fd5b600060088a8a60008181106107a957fe5b9050602002013560001b901b9050600060086002898989898960405160200180868152602001858152602001848152602001838152602001828152602001955050505050506040516020818303038152906040526040518082805190602001908083835b6020831061082c5780518252601f19909201916020918201910161080d565b51815160209384036101000a60001901801990921691161790526040519190930194509192505080830381855afa15801561086b573d6000803e3d6000fd5b5050506040513d602081101561088057600080fd5b5051901b905060ff19808216908316146108ce57604051600160e51b62461bcd02815260040180806020018281038252602481526020018061282e6024913960400191505060405180910390fd5b5a83510360208401525a8360006020020181815250506000602a60009054906101000a90046001600160a01b03166001600160a01b0316634292dc3e8f8f8f8f8f6040518663ffffffff1660e01b81526004018080602001806020018481526020018381038352888882818152602001925060200280828437600083820152601f01601f19169091018481038352868152602090810191508790870280828437600081840152601f19601f820116905080830192505050975050505050505050602060405180830381600087803b1580156109a857600080fd5b505af11580156109bc573d6000803e3d6000fd5b505050506040513d60208110156109d257600080fd5b5051905080610a1557604051600160e51b62461bcd02815260040180806020018281038252602f81526020018061272c602f913960400191505060405180910390fd5b5a84510360408501525a84526000898152602760205260409020548914610a7057604051600160e51b62461bcd0281526004018080602001828103825260398152602001806127cd6039913960400191505060405180910390fd5b86881415610ab257604051600160e51b62461bcd02815260040180806020018281038252602b815260200180612701602b913960400191505060405180910390fd5b84861415610af457604051600160e51b62461bcd0281526004018080602001828103825260448152602001806127896044913960600191505060405180910390fd5b60008881526026602052604090205415610b4257604051600160e51b62461bcd0281526004018080602001828103825260448152602001806126646044913960600191505060405180910390fd5b60008781526026602052604090205415610b9057604051600160e51b62461bcd0281526004018080602001828103825260448152602001806126206044913960600191505060405180910390fd5b6000888152602660205260408082208a9055888252908190208890558051600280825260608281019093528160200160208202803883390190505090508681600081518110610bdb57fe5b6020026020010181815250508581600181518110610bf557fe5b602002602001018181525050610c0a81612120565b60288190556000818152602760209081526040918290209290925580518b81529182018a905280517f73df0525b275cd54192815d7317fa1d335edb65a891a81329852b3a13ca181819281900390910190a15a85516020808801805190920192909203908190526040808801518151928352928201929092528151600080516020612600833981519152929181900390910190a1505050505050505050505050505050565b60266020526000908152604090205481565b60035481565b610ccf61183a565b6001600160a01b0316336001600160a01b031614610d2157604051600160e51b62461bcd02815260040180806020018281038252602e81526020018061275b602e913960400191505060405180910390fd5b60295460408051600160e21b63340104b70281526004810187905290516001600160a01b039092169163d00412dc91602480820192602092909190829003018186803b158015610d7057600080fd5b505afa158015610d84573d6000803e3d6000fd5b505050506040513d6020811015610d9a57600080fd5b50518414610df25760408051600160e51b62461bcd02815260206004820152601960248201527f4d696e7420766b4964206e6f7420726567697374657265642e00000000000000604482015290519081900360640190fd5b60295460408051600160e21b63340104b70281526004810186905290516001600160a01b039092169163d00412dc91602480820192602092909190829003018186803b158015610e4157600080fd5b505afa158015610e55573d6000803e3d6000fd5b505050506040513d6020811015610e6b57600080fd5b50518314610ec35760408051600160e51b62461bcd02815260206004820152601d60248201527f5472616e7366657220766b4964206e6f7420726567697374657265642e000000604482015290519081900360640190fd5b60295460408051600160e21b63340104b70281526004810185905290516001600160a01b039092169163d00412dc91602480820192602092909190829003018186803b158015610f1257600080fd5b505afa158015610f26573d6000803e3d6000fd5b505050506040513d6020811015610f3c57600080fd5b50518214610f7e57604051600160e51b62461bcd0281526004018080602001828103825260288152602001806128066028913960400191505060405180910390fd5b60295460408051600160e21b63340104b70281526004810184905290516001600160a01b039092169163d00412dc91602480820192602092909190829003018186803b158015610fcd57600080fd5b505afa158015610fe1573d6000803e3d6000fd5b505050506040513d6020811015610ff757600080fd5b5051811461104f5760408051600160e51b62461bcd02815260206004820152601960248201527f4275726e20766b4964206e6f7420726567697374657265642e00000000000000604482015290519081900360640190fd5b602c849055602d839055602f829055602e81905560408051858152602081018590528082018490526060810183905290517f2dfe5ff88dc70616410f3e10ba23e8a66c378a57643eae184d7c51dfb92bcdc39181900360800190a150505050565b6110b861183a565b6001600160a01b0316336001600160a01b03161461110a57604051600160e51b62461bcd02815260040180806020018281038252602e81526020018061275b602e913960400191505060405180910390fd5b6000546001600160a01b0316ff5b602a546001600160a01b031690565b602e5481565b60005a9050602e54861461117f5760408051600160e51b62461bcd02815260206004820152600e6024820152600160921b6d125b98dbdc9c9958dd081d9ad25902604482015290519081900360640190fd5b600060088989600081811061119057fe5b9050602002013560001b901b90506000600860028888888860405160200180858152602001848152602001836001600160801b03166001600160801b031660801b81526010018281526020019450505050506040516020818303038152906040526040518082805190602001908083835b602083106112205780518252601f199092019160209182019101611201565b51815160209384036101000a60001901801990921691161790526040519190930194509192505080830381855afa15801561125f573d6000803e3d6000fd5b5050506040513d602081101561127457600080fd5b5051901b905060ff19808216908316146112c257604051600160e51b62461bcd02815260040180806020018281038252602481526020018061282e6024913960400191505060405180910390fd5b60005a840390505a93506000602a60009054906101000a90046001600160a01b03166001600160a01b0316634292dc3e8f8f8f8f8f6040518663ffffffff1660e01b81526004018080602001806020018481526020018381038352888882818152602001925060200280828437600083820152601f01601f19169091018481038352868152602090810191508790870280828437600081840152601f19601f820116905080830192505050975050505050505050602060405180830381600087803b15801561139057600080fd5b505af11580156113a4573d6000803e3d6000fd5b505050506040513d60208110156113ba57600080fd5b50519050806113fd57604051600160e51b62461bcd02815260040180806020018281038252602f81526020018061272c602f913960400191505060405180910390fd5b60005a860390505a60008b8152602760205260409020549096508a1461145757604051600160e51b62461bcd0281526004018080602001828103825260398152602001806127cd6039913960400191505060405180910390fd5b600089815260266020526040902054156114a557604051600160e51b62461bcd0281526004018080602001828103825260368152602001806126cb6036913960400191505060405180910390fd5b60008981526026602090815260408083208c9055602b548151600160e01b63a9059cbb0281526001600160a01b03808d1660048301526001600160801b038e16602483015292518c95939092169363a9059cbb9360448084019492938390030190829087803b15801561151757600080fd5b505af115801561152b573d6000803e3d6000fd5b505050506040513d602081101561154157600080fd5b5050604080518b815290517f420254109828776b447479904f63ffd7cdc8e80c46a6a41400cc8674d9dab90d9181900360200190a15a6040805195890191909103808652602086018490528151909560008051602061260083398151915292908290030190a150505050505050505050505050505050565b60006003546002541161160057604051600160e51b62461bcd0281526004018080602001828103825260238152602001806126a86023913960400191505060405180910390fd5b600061160d600354612552565b6002546003549192500160001901602884901b60008061162b6125e1565b6000805b6001548110156117c0578781141561166957856005896021811061164f57fe5b0180546001600160d81b03191660289290921c9190911790555b60028706611724576005816021811061167e57fe5b015460405160289190911b808252601b820188905295508694506020846036836002600019fa92508280156116b2576116b4565bfe5b505082516040805164ffffffffff1988811682528716602082015280820183905260026000199a909a019990990460608a018190529051909860289290921b97507fc84edbd4893d9f5e7f1a0e9cef31bc608e285b8683036b7b0c62346c9785b60d9181900360800190a16117b8565b60045460405187815260289190911b601b820181905287965094506020846036836002600019fa92508280156116b257505082516040805164ffffffffff19888116825287166020820152808201839052600290990460608a018190529051909860289290921b97507fc84edbd4893d9f5e7f1a0e9cef31bc608e285b8683036b7b0c62346c9785b60d9181900360800190a15b60010161162f565b50815160035460408051918252602082018c9052818101839052519199507f6a82ba2aa1d2c039c41e6e2b5a5a1090d09906f060d32af9c1ac0beff7af75c0919081900360600190a1505060038054600101905550505050505b919050565b602c5481565b60025481565b6029546001600160a01b031681565b6000546001600160a01b031690565b60276020526000908152604090205481565b6000546001600160a01b031681565b60005a9050602c5484146118bc5760408051600160e51b62461bcd02815260206004820152600e6024820152600160921b6d125b98dbdc9c9958dd081d9ad25902604482015290519081900360640190fd5b60006008878760008181106118cd57fe5b9050602002013560001b901b9050600060086002868660405160200180836001600160801b03166001600160801b031660801b8152601001828152602001925050506040516020818303038152906040526040518082805190602001908083835b6020831061194d5780518252601f19909201916020918201910161192e565b51815160209384036101000a60001901801990921691161790526040519190930194509192505080830381855afa15801561198c573d6000803e3d6000fd5b5050506040513d60208110156119a157600080fd5b5051901b905060ff19808216908316146119ef57604051600160e51b62461bcd02815260040180806020018281038252602481526020018061282e6024913960400191505060405180910390fd5b60005a840390505a602a54604051600160e11b6321496e1f028152604481018a9052606060048201908152606482018e90529296506000926001600160a01b0390921691634292dc3e918f918f918f918f918f919081906024810190608401886020890280828437600083820152601f01601f19169091018481038352868152602090810191508790870280828437600081840152601f19601f820116905080830192505050975050505050505050602060405180830381600087803b158015611ab857600080fd5b505af1158015611acc573d6000803e3d6000fd5b505050506040513d6020811015611ae257600080fd5b5051905080611b2557604051600160e51b62461bcd02815260040180806020018281038252602f81526020018061272c602f913960400191505060405180910390fd5b60005a860390505a9550611b38876115b9565b6028819055600081815260276020908152604080832093909355602b548351600160e01b6323b872dd0281523360048201523060248201526001600160801b038d16604482015293516001600160a01b03909116936323b872dd9360648083019493928390030190829087803b158015611bb157600080fd5b505af1158015611bc5573d6000803e3d6000fd5b505050506040513d6020811015611bdb57600080fd5b50505a6040805194880191909103808552602085018390528151909460008051602061260083398151915292908290030190a150505050505050505050505050565b602f5481565b60005a9050602f548614611c755760408051600160e51b62461bcd02815260206004820152600e6024820152600160921b6d125b98dbdc9c9958dd081d9ad25902604482015290519081900360640190fd5b6000600889896000818110611c8657fe5b9050602002013560001b901b90506000600860028888888860405160200180858152602001848152602001838360200280828437808301925050509450505050506040516020818303038152906040526040518082805190602001908083835b60208310611d055780518252601f199092019160209182019101611ce6565b51815160209384036101000a60001901801990921691161790526040519190930194509192505080830381855afa158015611d44573d6000803e3d6000fd5b5050506040513d6020811015611d5957600080fd5b5051901b905060ff1980821690831614611da757604051600160e51b62461bcd02815260040180806020018281038252602481526020018061282e6024913960400191505060405180910390fd5b60005a840390505a93506000602a60009054906101000a90046001600160a01b03166001600160a01b0316634292dc3e8f8f8f8f8f6040518663ffffffff1660e01b81526004018080602001806020018481526020018381038352888882818152602001925060200280828437600083820152601f01601f19169091018481038352868152602090810191508790870280828437600081840152601f19601f820116905080830192505050975050505050505050602060405180830381600087803b158015611e7557600080fd5b505af1158015611e89573d6000803e3d6000fd5b505050506040513d6020811015611e9f57600080fd5b5051905080611ee257604051600160e51b62461bcd02815260040180806020018281038252602f81526020018061272c602f913960400191505060405180910390fd5b60005a860390505a60008b8152602760205260409020549096508a14611f3c57604051600160e51b62461bcd0281526004018080602001828103825260398152602001806127cd6039913960400191505060405180910390fd5b60008981526026602052604090205415611f8a57604051600160e51b62461bcd0281526004018080602001828103825260368152602001806126cb6036913960400191505060405180910390fd5b88602660008b815260200190815260200160002081905550611fde88888080602002602001604051908101604052809392919081815260200183836020028082843760009201919091525061212092505050565b60288190556000818152602760209081526040918290209290925580518b815290517f04de17f79488e1096041b5c4046c8d0cec1492f521532e3275ef69be66c622d2929181900390910190a15a6040805194880191909103808552602085018390528151909460008051602061260083398151915292908290030190a1505050505050505050505050505050565b61207561183a565b6001600160a01b0316336001600160a01b0316146120c757604051600160e51b62461bcd02815260040180806020018281038252602e81526020018061275b602e913960400191505060405180910390fd5b602a80546001600160a01b0383166001600160a01b0319909116811790915560408051918252517eaccbf0787bf565863b49aef6d6d8ff2f631f1da95c76e016aed7a21a11a7b79181900360200190a150565b60285481565b600080825190506003546002541161216c57604051600160e51b62461bcd0281526004018080602001828103825260238152602001806126a86023913960400191505060405180910390fd5b600354600254038111156121aa5760035460025403810360005b8181101561219e578451600019018552600101612186565b50600354600254039150505b60008060008060006121ba6125e1565b6003546000905b88600354018110156123175760288b6003548303815181106121df57fe5b6020026020010151901b9550600160025482010396506121fe81612552565b97508761223157856005896021811061221357fe5b0180546001600160d81b03191660289290921c91909117905561230f565b60015b8881116122e6576002880661229e576005600182036021811061225357fe5b015460405160289190911b808252601b820189905296508795506020856036836002600019fa93508380156116b25750508351600260001999909901989098049760281b96506122de565b60045460405188815260289190911b601b820181905288975095506020856036836002600019fa93508380156116b2575050835160029098049760281b96505b600101612234565b5085600589602181106122f557fe5b0180546001600160d81b03191660289290921c9190911790555b6001016121c1565b50600187015b60015481116123d15760028706612389576005600182036021811061233e57fe5b015460405160289190911b808252601b820188905295508694506020846036836002600019fa92508280156116b25750508251600260001998909801979097049660281b95506123c9565b60045460405187815260289190911b601b820181905287965094506020846036836002600019fa92508280156116b2575050825160029097049660281b95505b60010161231d565b50816000602002015198507f8ec50f97970775682a68d3c6f9caedf60fd82448ea40706b8b65d6c03648b9226003548b8b6040518084815260200180602001838152602001828103825284818151815260200191508051906020019060200280838360005b8381101561244e578181015183820152602001612436565b5050505090500194505050505060405180910390a15050600380549096019095555050505050919050565b61248161183a565b6001600160a01b0316336001600160a01b0316146124d357604051600160e51b62461bcd02815260040180806020018281038252602e81526020018061275b602e913960400191505060405180910390fd5b6001600160a01b0381166124e657600080fd5b7f8be0079c531659141344cd1fd0a4f28419497f9722a3daafe3b4186f6b6457e061250f61183a565b604080516001600160a01b03928316815291841660208301528051918290030190a161253a816125a1565b50565b602b546001600160a01b031690565b602d5481565b6000600282066001141561181a576001600260045b8361259957808286600101038161257a57fe5b0661258757829350612594565b60019283019290915081901b5b612567565b505050919050565b600080546001600160a01b0319166001600160a01b0392909216919091179055565b60405180606001604052806003906020820280388339509192915050565b6040518060200160405280600190602082028038833950919291505056fe853720e5a853f80d6ab997d85a0ddd977b89b1e70cc4a1303975d10974c60e1554686520636f6d6d69746d656e74206265696e67207370656e742028636f6d6d69746d656e7446292068617320616c7265616479206265656e206e756c6c69666965642154686520636f6d6d69746d656e74206265696e67207370656e742028636f6d6d69746d656e7445292068617320616c7265616479206265656e206e756c6c6966696564215468657265206973206e6f207370616365206c65667420696e2074686520747265652e54686520636f6d6d69746d656e74206265696e67207370656e742068617320616c7265616479206265656e206e756c6c6966696564215468652074776f20696e707574206e756c6c696669657273206d75737420626520646966666572656e74215468652070726f6f6620686173206e6f74206265656e2076657269666965642062792074686520636f6e7472616374596f7520617265206e6f7420617574686f726973656420746f20696e766f6b6520746869732066756e6374696f6e546865206e657720636f6d6d69746d656e74732028636f6d6d69746d656e744520616e6420636f6d6d69746d656e744629206d75737420626520646966666572656e742154686520696e70757420726f6f7420686173206e65766572206265656e2074686520726f6f74206f6620746865204d65726b6c65205472656553696d706c6542617463685472616e7366657220766b4964206e6f7420726567697374657265642e7075626c6963496e707574486173682063616e6e6f74206265207265636f6e63696c6564a165627a7a723058209c7948903ff2f2e390755d273073f9fc9763f8def96d31aad142ed9beb529af00029",
  "source": "/**\nContract to enable the management of ZKSnark-hidden coin transactions.\n@Author Westlad, Chaitanya-Konda, iAmMichaelConnor\n*/\n\npragma solidity ^0.5.8;\n\nimport \"./Ownable.sol\";\nimport \"./MerkleTree.sol\";\nimport \"./Verifier_Registry.sol\"; //we import the implementation to have visibility of its 'getters'\nimport \"./Verifier_Interface.sol\";\nimport \"./ERC20Interface.sol\";\n\ncontract FTokenShield is Ownable, MerkleTree {\n  // Observers may wish to listen for nullification of commitments:\n  event Transfer(bytes32 nullifier1, bytes32 nullifier2);\n  event SimpleBatchTransfer(bytes32 nullifier);\n  event Burn(bytes32 nullifier);\n\n  // Observers may wish to listen for zkSNARK-related changes:\n  event VerifierChanged(address newVerifierContract);\n  event VkIdsChanged(bytes32 mintVkId, bytes32 transferVkId, bytes32 simpleBatchTransferVkId, bytes32 burnVkId);\n\n  // For testing only. This SHOULD be deleted before mainnet deployment:\n  event GasUsed(uint256 byShieldContract, uint256 byVerifierContract);\n\n  uint constant bitLength = 216; // the number of LSB that we use in a hash\n  uint constant batchProofSize = 20; // the number of output commitments in the batch transfer proof\n\n  mapping(bytes32 => bytes32) public nullifiers; // store nullifiers of spent commitments\n  mapping(bytes32 => bytes32) public roots; // holds each root we've calculated so that we can pull the one relevant to the prover\n  bytes32 public latestRoot; // holds the index for the latest root so that the prover can provide it later and this contract can look up the relevant root\n\n  Verifier_Registry public verifierRegistry; // the Verifier Registry contract\n  Verifier_Interface private verifier; // the verification smart contract\n  ERC20Interface private fToken; // the  ERC-20 token contract\n\n  //following registration of the vkId's with the Verifier Registry, we hard code their vkId's in setVkIds\n  bytes32 public mintVkId;\n  bytes32 public transferVkId;\n  bytes32 public burnVkId;\n  bytes32 public simpleBatchTransferVkId;\n\n  constructor(address _verifierRegistry, address _verifier, address _fToken) public {\n      _owner = msg.sender;\n      verifierRegistry = Verifier_Registry(_verifierRegistry);\n      verifier = Verifier_Interface(_verifier);\n      fToken = ERC20Interface(_fToken);\n  }\n\n  /**\n  function to change the address of the underlying Verifier contract\n  */\n  function changeVerifier(address _verifier) external onlyOwner {\n      verifier = Verifier_Interface(_verifier);\n      emit VerifierChanged(_verifier);\n  }\n\n  /**\n  self destruct\n  */\n  function close() public onlyOwner {\n      selfdestruct(address(uint160(_owner)));\n  }\n\n  /**\n  returns the verifier-interface contract address that this shield contract is calling\n  */\n  function getVerifier() public view returns(address){\n      return address(verifier);\n  }\n\n  /**\n  Sets the vkIds (as registered with the Verifier Registry) which correspond to 'mint', 'transfer' and 'burn' computations respectively\n  */\n  function setVkIds(bytes32 _mintVkId, bytes32 _transferVkId, bytes32 _simpleBatchTransferVkId, bytes32 _burnVkId) external onlyOwner {\n      //ensure the vkId's have been registered:\n      require(_mintVkId == verifierRegistry.getVkEntryVkId(_mintVkId), \"Mint vkId not registered.\");\n      require(_transferVkId == verifierRegistry.getVkEntryVkId(_transferVkId), \"Transfer vkId not registered.\");\n      require(_simpleBatchTransferVkId == verifierRegistry.getVkEntryVkId(_simpleBatchTransferVkId), \"SimpleBatchTransfer vkId not registered.\");\n      require(_burnVkId == verifierRegistry.getVkEntryVkId(_burnVkId), \"Burn vkId not registered.\");\n\n      //store the vkIds\n      mintVkId = _mintVkId;\n      transferVkId = _transferVkId;\n      simpleBatchTransferVkId = _simpleBatchTransferVkId;\n      burnVkId = _burnVkId;\n\n      emit VkIdsChanged(mintVkId, transferVkId, simpleBatchTransferVkId, burnVkId);\n  }\n\n  /**\n  returns the ERC-20 contract address that this shield contract is calling\n  */\n  function getFToken() public view returns(address){\n    return address(fToken);\n  }\n\n\n  /**\n  The mint function accepts fungible tokens from the specified fToken ERC-20 contract and creates the same amount as a commitment.\n  */\n  function mint(uint256[] calldata _proof, uint256[] calldata _inputs, bytes32 _vkId, uint128 _value, bytes32 _commitment) external {\n\n      // gas measurement:\n      uint256 gasCheckpoint = gasleft();\n\n      require(_vkId == mintVkId, \"Incorrect vkId\");\n\n      // Check that the publicInputHash equals the hash of the 'public inputs':\n      bytes31 publicInputHash = bytes31(bytes32(_inputs[0]) << 8);\n      bytes31 publicInputHashCheck = bytes31(sha256(abi.encodePacked(uint128(_value), _commitment)) << 8); // Note that we force the _value to be left-padded with zeros to fill 128-bits, so as to match the padding in the hash calculation performed within the zokrates proof.\n      require(publicInputHashCheck == publicInputHash, \"publicInputHash cannot be reconciled\");\n\n      // gas measurement:\n      uint256 gasUsedByShieldContract = gasCheckpoint - gasleft();\n      gasCheckpoint = gasleft();\n\n      // verify the proof\n      bool result = verifier.verify(_proof, _inputs, _vkId);\n      require(result, \"The proof has not been verified by the contract\");\n\n      // gas measurement:\n      uint256 gasUsedByVerifierContract = gasCheckpoint - gasleft();\n      gasCheckpoint = gasleft();\n\n      // update contract states\n      latestRoot = insertLeaf(_commitment); // recalculate the root of the merkleTree as it's now different\n      roots[latestRoot] = latestRoot; // and save the new root to the list of roots\n\n      // Finally, transfer the fTokens from the sender to this contract\n      fToken.transferFrom(msg.sender, address(this), _value);\n\n      // gas measurement:\n      gasUsedByShieldContract = gasUsedByShieldContract + gasCheckpoint - gasleft();\n      emit GasUsed(gasUsedByShieldContract, gasUsedByVerifierContract);\n  }\n\n  /**\n  The transfer function transfers a commitment to a new owner\n  */\n  function transfer(uint256[] calldata _proof, uint256[] calldata _inputs, bytes32 _vkId, bytes32 _root, bytes32 _nullifierC, bytes32 _nullifierD, bytes32 _commitmentE, bytes32 _commitmentF) external {\n\n      // gas measurement:\n      uint256[3] memory gasUsed; // array needed to stay below local stack limit\n      gasUsed[0] = gasleft();\n\n      require(_vkId == transferVkId, \"Incorrect vkId\");\n\n      // Check that the publicInputHash equals the hash of the 'public inputs':\n      bytes31 publicInputHash = bytes31(bytes32(_inputs[0]) << 8);\n      bytes31 publicInputHashCheck = bytes31(sha256(abi.encodePacked(_root, _nullifierC, _nullifierD, _commitmentE, _commitmentF)) << 8);\n      require(publicInputHashCheck == publicInputHash, \"publicInputHash cannot be reconciled\");\n\n      // gas measurement:\n      gasUsed[1] = gasUsed[0] - gasleft();\n      gasUsed[0] = gasleft();\n\n      // verify the proof\n      bool result = verifier.verify(_proof, _inputs, _vkId);\n      require(result, \"The proof has not been verified by the contract\");\n\n      // gas measurement:\n      gasUsed[2] = gasUsed[0] - gasleft();\n      gasUsed[0] = gasleft();\n\n      // check inputs vs on-chain states\n      require(roots[_root] == _root, \"The input root has never been the root of the Merkle Tree\");\n      require(_nullifierC != _nullifierD, \"The two input nullifiers must be different!\");\n      require(_commitmentE != _commitmentF, \"The new commitments (commitmentE and commitmentF) must be different!\");\n      require(nullifiers[_nullifierC] == 0, \"The commitment being spent (commitmentE) has already been nullified!\");\n      require(nullifiers[_nullifierD] == 0, \"The commitment being spent (commitmentF) has already been nullified!\");\n\n      // update contract states\n      nullifiers[_nullifierC] = _nullifierC; //remember we spent it\n      nullifiers[_nullifierD] = _nullifierD; //remember we spent it\n\n      bytes32[] memory leaves = new bytes32[](2);\n      leaves[0] = _commitmentE;\n      leaves[1] = _commitmentF;\n\n      latestRoot = insertLeaves(leaves); // recalculate the root of the merkleTree as it's now different\n      roots[latestRoot] = latestRoot; // and save the new root to the list of roots\n\n      emit Transfer(_nullifierC, _nullifierD);\n\n      // gas measurement:\n      gasUsed[1] = gasUsed[1] + gasUsed[0] - gasleft();\n      emit GasUsed(gasUsed[1], gasUsed[2]);\n  }\n\n  /**\n  The transfer function transfers 20 commitments to new owners\n  */\n  function simpleBatchTransfer(uint256[] calldata _proof, uint256[] calldata _inputs, bytes32 _vkId, bytes32 _root, bytes32 _nullifier, bytes32[] calldata _commitments) external {\n\n      // gas measurement:\n      uint256 gasCheckpoint = gasleft();\n\n      require(_vkId == simpleBatchTransferVkId, \"Incorrect vkId\");\n\n      // Check that the publicInputHash equals the hash of the 'public inputs':\n      bytes31 publicInputHash = bytes31(bytes32(_inputs[0]) << 8);\n      bytes31 publicInputHashCheck = bytes31(sha256(abi.encodePacked(_root, _nullifier, _commitments)) << 8);\n      require(publicInputHashCheck == publicInputHash, \"publicInputHash cannot be reconciled\");\n\n      // gas measurement:\n      uint256 gasUsedByShieldContract = gasCheckpoint - gasleft();\n      gasCheckpoint = gasleft();\n\n      // verify the proof\n      bool result = verifier.verify(_proof, _inputs, _vkId);\n      require(result, \"The proof has not been verified by the contract\");\n\n      // gas measurement:\n      uint256 gasUsedByVerifierContract = gasCheckpoint - gasleft();\n      gasCheckpoint = gasleft();\n\n      // check inputs vs on-chain states\n      require(roots[_root] == _root, \"The input root has never been the root of the Merkle Tree\");\n      require(nullifiers[_nullifier] == 0, \"The commitment being spent has already been nullified!\");\n\n      // update contract states\n      nullifiers[_nullifier] = _nullifier; //remember we spent it\n\n      latestRoot = insertLeaves(_commitments);\n      roots[latestRoot] = latestRoot; //and save the new root to the list of roots\n\n      emit SimpleBatchTransfer(_nullifier);\n\n      // gas measurement:\n      gasUsedByShieldContract = gasUsedByShieldContract + gasCheckpoint - gasleft();\n      emit GasUsed(gasUsedByShieldContract, gasUsedByVerifierContract);\n  }\n\n\n  function burn(uint256[] calldata _proof, uint256[] calldata _inputs, bytes32 _vkId, bytes32 _root, bytes32 _nullifier, uint128 _value, uint256 _payTo) external {\n\n      // gas measurement:\n      uint256 gasCheckpoint = gasleft();\n\n      require(_vkId == burnVkId, \"Incorrect vkId\");\n\n      // Check that the publicInputHash equals the hash of the 'public inputs':\n      bytes31 publicInputHash = bytes31(bytes32(_inputs[0]) << 8);\n      bytes31 publicInputHashCheck = bytes31(sha256(abi.encodePacked(_root, _nullifier, uint128(_value), _payTo)) << 8); // Note that although _payTo represents an address, we have declared it as a uint256. This is because we want it to be abi-encoded as a bytes32 (left-padded with zeros) so as to match the padding in the hash calculation performed within the zokrates proof. Similarly, we force the _value to be left-padded with zeros to fill 128-bits.\n      require(publicInputHashCheck == publicInputHash, \"publicInputHash cannot be reconciled\");\n\n      // gas measurement:\n      uint256 gasUsedByShieldContract = gasCheckpoint - gasleft();\n      gasCheckpoint = gasleft();\n\n      // verify the proof\n      bool result = verifier.verify(_proof, _inputs, _vkId);\n      require(result, \"The proof has not been verified by the contract\");\n\n      // gas measurement:\n      uint256 gasUsedByVerifierContract = gasCheckpoint - gasleft();\n      gasCheckpoint = gasleft();\n\n      // check inputs vs on-chain states\n      require(roots[_root] == _root, \"The input root has never been the root of the Merkle Tree\");\n      require(nullifiers[_nullifier]==0, \"The commitment being spent has already been nullified!\");\n\n      nullifiers[_nullifier] = _nullifier; // add the nullifier to the list of nullifiers\n\n      //Finally, transfer the fungible tokens from this contract to the nominated address\n      address payToAddress = address(_payTo); // we passed _payTo as a uint256, to ensure the packing was correct within the sha256() above\n      fToken.transfer(payToAddress, _value);\n\n      emit Burn(_nullifier);\n\n      // gas measurement:\n      gasUsedByShieldContract = gasUsedByShieldContract + gasCheckpoint - gasleft();\n      emit GasUsed(gasUsedByShieldContract, gasUsedByVerifierContract);\n  }\n}\n",
  "sourcePath": "/truffle/contracts/FTokenShield.sol",
  "compiler": {
    "name": "solc",
    "version": "0.5.8+commit.23d335f2.Emscripten.clang"
  },
  "schemaVersion": "3.0.5",
  "updatedAt": "2019-12-18T18:21:24.515Z",
  "devdoc": {
    "methods": {
      "insertLeaf(bytes32)": {
        "params": {
          "leafValue": "- the value of the leaf being inserted."
        },
        "return": "bytes32 - the root of the merkle tree, after the insert."
      },
      "insertLeaves(bytes32[])": {
        "params": {
          "leafValues": "- the values of the leaves being inserted."
        },
        "return": "bytes32[] - the root of the merkle tree, after all the inserts."
      },
      "owner()": {
        "details": "Tells the address of the owner",
        "return": "the address of the owner"
      },
      "transferOwnership(address)": {
        "details": "Allows the current owner to transfer control of the contract to a newOwner.",
        "params": {
          "newOwner": "The address to transfer ownership to."
        }
      }
    }
  },
  "userdoc": {
    "methods": {
      "changeVerifier(address)": {
        "notice": "function to change the address of the underlying Verifier contract"
      },
      "close()": {
        "notice": "self destruct"
      },
      "getFToken()": {
        "notice": "returns the ERC-20 contract address that this shield contract is calling"
      },
      "getVerifier()": {
        "notice": "returns the verifier-interface contract address that this shield contract is calling"
      },
      "insertLeaf(bytes32)": {
        "notice": "Insert a leaf into the Merkle Tree, update the root, and update any values in the (persistently stored) frontier."
      },
      "insertLeaves(bytes32[])": {
        "notice": "Insert multiple leaves into the Merkle Tree, and then update the root, and update any values in the (persistently stored) frontier."
      },
      "mint(uint256[],uint256[],bytes32,uint128,bytes32)": {
        "notice": "The mint function accepts fungible tokens from the specified fToken ERC-20 contract and creates the same amount as a commitment."
      },
      "setVkIds(bytes32,bytes32,bytes32,bytes32)": {
        "notice": "Sets the vkIds (as registered with the Verifier Registry) which correspond to 'mint', 'transfer' and 'burn' computations respectively"
      },
      "simpleBatchTransfer(uint256[],uint256[],bytes32,bytes32,bytes32,bytes32[])": {
        "notice": "The transfer function transfers 20 commitments to new owners"
      },
      "transfer(uint256[],uint256[],bytes32,bytes32,bytes32,bytes32,bytes32,bytes32)": {
        "notice": "The transfer function transfers a commitment to a new owner"
      }
    }
  }
}