{
  "contractName": "NFTokenShield",
  "abi": [
    {
      "constant": true,
      "inputs": [],
      "name": "treeHeight",
      "outputs": [
        {
          "name": "",
          "type": "uint256"
        }
      ],
      "payable": false,
      "stateMutability": "view",
      "type": "function",
      "signature": "0x01e3e915"
    },
    {
      "constant": true,
      "inputs": [
        {
          "name": "",
          "type": "bytes32"
        }
      ],
      "name": "nullifiers",
      "outputs": [
        {
          "name": "",
          "type": "bytes32"
        }
      ],
      "payable": false,
      "stateMutability": "view",
      "type": "function",
      "signature": "0x2997e86b"
    },
    {
      "constant": true,
      "inputs": [],
      "name": "verifier",
      "outputs": [
        {
          "name": "",
          "type": "address"
        }
      ],
      "payable": false,
      "stateMutability": "view",
      "type": "function",
      "signature": "0x2b7ac3f3"
    },
    {
      "constant": true,
      "inputs": [],
      "name": "leafCount",
      "outputs": [
        {
          "name": "",
          "type": "uint256"
        }
      ],
      "payable": false,
      "stateMutability": "view",
      "type": "function",
      "signature": "0x30e69fc3"
    },
    {
      "constant": true,
      "inputs": [],
      "name": "burnVkId",
      "outputs": [
        {
          "name": "",
          "type": "bytes32"
        }
      ],
      "payable": false,
      "stateMutability": "view",
      "type": "function",
      "signature": "0x4b76fd6f"
    },
    {
      "constant": false,
      "inputs": [
        {
          "name": "leafValue",
          "type": "bytes32"
        }
      ],
      "name": "insertLeaf",
      "outputs": [
        {
          "name": "root",
          "type": "bytes32"
        }
      ],
      "payable": false,
      "stateMutability": "nonpayable",
      "type": "function",
      "signature": "0x5c8b80ab"
    },
    {
      "constant": true,
      "inputs": [],
      "name": "mintVkId",
      "outputs": [
        {
          "name": "",
          "type": "bytes32"
        }
      ],
      "payable": false,
      "stateMutability": "view",
      "type": "function",
      "signature": "0x69ae254a"
    },
    {
      "constant": true,
      "inputs": [],
      "name": "treeWidth",
      "outputs": [
        {
          "name": "",
          "type": "uint256"
        }
      ],
      "payable": false,
      "stateMutability": "view",
      "type": "function",
      "signature": "0x76c601b1"
    },
    {
      "constant": true,
      "inputs": [],
      "name": "verifierRegistry",
      "outputs": [
        {
          "name": "",
          "type": "address"
        }
      ],
      "payable": false,
      "stateMutability": "view",
      "type": "function",
      "signature": "0x86a23a6b"
    },
    {
      "constant": true,
      "inputs": [],
      "name": "owner",
      "outputs": [
        {
          "name": "",
          "type": "address"
        }
      ],
      "payable": false,
      "stateMutability": "view",
      "type": "function",
      "signature": "0x8da5cb5b"
    },
    {
      "constant": true,
      "inputs": [
        {
          "name": "",
          "type": "bytes32"
        }
      ],
      "name": "roots",
      "outputs": [
        {
          "name": "",
          "type": "bytes32"
        }
      ],
      "payable": false,
      "stateMutability": "view",
      "type": "function",
      "signature": "0xae6dead7"
    },
    {
      "constant": true,
      "inputs": [],
      "name": "_owner",
      "outputs": [
        {
          "name": "",
          "type": "address"
        }
      ],
      "payable": false,
      "stateMutability": "view",
      "type": "function",
      "signature": "0xb2bdfa7b"
    },
    {
      "constant": true,
      "inputs": [],
      "name": "latestRoot",
      "outputs": [
        {
          "name": "",
          "type": "bytes32"
        }
      ],
      "payable": false,
      "stateMutability": "view",
      "type": "function",
      "signature": "0xd7b0fef1"
    },
    {
      "constant": false,
      "inputs": [
        {
          "name": "leafValues",
          "type": "bytes32[]"
        }
      ],
      "name": "insertLeaves",
      "outputs": [
        {
          "name": "root",
          "type": "bytes32"
        }
      ],
      "payable": false,
      "stateMutability": "nonpayable",
      "type": "function",
      "signature": "0xdc52bf9f"
    },
    {
      "constant": false,
      "inputs": [
        {
          "name": "newOwner",
          "type": "address"
        }
      ],
      "name": "transferOwnership",
      "outputs": [],
      "payable": false,
      "stateMutability": "nonpayable",
      "type": "function",
      "signature": "0xf2fde38b"
    },
    {
      "constant": true,
      "inputs": [],
      "name": "transferVkId",
      "outputs": [
        {
          "name": "",
          "type": "bytes32"
        }
      ],
      "payable": false,
      "stateMutability": "view",
      "type": "function",
      "signature": "0xf64964fb"
    },
    {
      "constant": true,
      "inputs": [],
      "name": "nfToken",
      "outputs": [
        {
          "name": "",
          "type": "address"
        }
      ],
      "payable": false,
      "stateMutability": "view",
      "type": "function",
      "signature": "0xfe7ee899"
    },
    {
      "inputs": [
        {
          "name": "_verifierRegistry",
          "type": "address"
        },
        {
          "name": "_verifier",
          "type": "address"
        },
        {
          "name": "_nfToken",
          "type": "address"
        }
      ],
      "payable": false,
      "stateMutability": "nonpayable",
      "type": "constructor",
      "signature": "constructor"
    },
    {
      "anonymous": false,
      "inputs": [
        {
          "indexed": false,
          "name": "nullifier",
          "type": "bytes32"
        }
      ],
      "name": "Transfer",
      "type": "event",
      "signature": "0x9e55abecb30e7109f17dacd0677f78dfca1814ad879657087c2d54e9a7fb5eb4"
    },
    {
      "anonymous": false,
      "inputs": [
        {
          "indexed": false,
          "name": "nullifier",
          "type": "bytes32"
        }
      ],
      "name": "Burn",
      "type": "event",
      "signature": "0x420254109828776b447479904f63ffd7cdc8e80c46a6a41400cc8674d9dab90d"
    },
    {
      "anonymous": false,
      "inputs": [
        {
          "indexed": false,
          "name": "newVerifierContract",
          "type": "address"
        }
      ],
      "name": "VerifierChanged",
      "type": "event",
      "signature": "0x00accbf0787bf565863b49aef6d6d8ff2f631f1da95c76e016aed7a21a11a7b7"
    },
    {
      "anonymous": false,
      "inputs": [
        {
          "indexed": false,
          "name": "mintVkId",
          "type": "bytes32"
        },
        {
          "indexed": false,
          "name": "transferVkId",
          "type": "bytes32"
        },
        {
          "indexed": false,
          "name": "burnVkId",
          "type": "bytes32"
        }
      ],
      "name": "VkIdsChanged",
      "type": "event",
      "signature": "0x1f8f16ca5111548c9fdc797c50a49b5f07f4fa15595b6c53f497d029554197e5"
    },
    {
      "anonymous": false,
      "inputs": [
        {
          "indexed": false,
          "name": "byShieldContract",
          "type": "uint256"
        },
        {
          "indexed": false,
          "name": "byVerifierContract",
          "type": "uint256"
        }
      ],
      "name": "GasUsed",
      "type": "event",
      "signature": "0x853720e5a853f80d6ab997d85a0ddd977b89b1e70cc4a1303975d10974c60e15"
    },
    {
      "anonymous": false,
      "inputs": [
        {
          "indexed": false,
          "name": "leafIndex",
          "type": "uint256"
        },
        {
          "indexed": false,
          "name": "leafValue",
          "type": "bytes32"
        },
        {
          "indexed": false,
          "name": "root",
          "type": "bytes32"
        }
      ],
      "name": "NewLeaf",
      "type": "event",
      "signature": "0x6a82ba2aa1d2c039c41e6e2b5a5a1090d09906f060d32af9c1ac0beff7af75c0"
    },
    {
      "anonymous": false,
      "inputs": [
        {
          "indexed": false,
          "name": "minLeafIndex",
          "type": "uint256"
        },
        {
          "indexed": false,
          "name": "leafValues",
          "type": "bytes32[]"
        },
        {
          "indexed": false,
          "name": "root",
          "type": "bytes32"
        }
      ],
      "name": "NewLeaves",
      "type": "event",
      "signature": "0x8ec50f97970775682a68d3c6f9caedf60fd82448ea40706b8b65d6c03648b922"
    },
    {
      "anonymous": false,
      "inputs": [
        {
          "indexed": false,
          "name": "leftInput",
          "type": "bytes27"
        },
        {
          "indexed": false,
          "name": "rightInput",
          "type": "bytes27"
        },
        {
          "indexed": false,
          "name": "output",
          "type": "bytes32"
        },
        {
          "indexed": false,
          "name": "nodeIndex",
          "type": "uint256"
        }
      ],
      "name": "Output",
      "type": "event",
      "signature": "0xc84edbd4893d9f5e7f1a0e9cef31bc608e285b8683036b7b0c62346c9785b60d"
    },
    {
      "anonymous": false,
      "inputs": [
        {
          "indexed": false,
          "name": "previousOwner",
          "type": "address"
        },
        {
          "indexed": false,
          "name": "newOwner",
          "type": "address"
        }
      ],
      "name": "OwnershipTransferred",
      "type": "event",
      "signature": "0x8be0079c531659141344cd1fd0a4f28419497f9722a3daafe3b4186f6b6457e0"
    },
    {
      "constant": false,
      "inputs": [],
      "name": "close",
      "outputs": [],
      "payable": false,
      "stateMutability": "nonpayable",
      "type": "function",
      "signature": "0x43d726d6"
    },
    {
      "constant": false,
      "inputs": [
        {
          "name": "_verifier",
          "type": "address"
        }
      ],
      "name": "changeVerifier",
      "outputs": [],
      "payable": false,
      "stateMutability": "nonpayable",
      "type": "function",
      "signature": "0xcf04fb94"
    },
    {
      "constant": true,
      "inputs": [],
      "name": "getVerifier",
      "outputs": [
        {
          "name": "",
          "type": "address"
        }
      ],
      "payable": false,
      "stateMutability": "view",
      "type": "function",
      "signature": "0x46657fe9"
    },
    {
      "constant": false,
      "inputs": [
        {
          "name": "_mintVkId",
          "type": "bytes32"
        },
        {
          "name": "_transferVkId",
          "type": "bytes32"
        },
        {
          "name": "_burnVkId",
          "type": "bytes32"
        }
      ],
      "name": "setVkIds",
      "outputs": [],
      "payable": false,
      "stateMutability": "nonpayable",
      "type": "function",
      "signature": "0x5dd5de09"
    },
    {
      "constant": true,
      "inputs": [],
      "name": "getNFToken",
      "outputs": [
        {
          "name": "",
          "type": "address"
        }
      ],
      "payable": false,
      "stateMutability": "view",
      "type": "function",
      "signature": "0xa54557f3"
    },
    {
      "constant": true,
      "inputs": [
        {
          "name": "",
          "type": "address"
        },
        {
          "name": "",
          "type": "address"
        },
        {
          "name": "",
          "type": "uint256"
        },
        {
          "name": "",
          "type": "bytes"
        }
      ],
      "name": "onERC721Received",
      "outputs": [
        {
          "name": "",
          "type": "bytes4"
        }
      ],
      "payable": false,
      "stateMutability": "pure",
      "type": "function",
      "signature": "0x150b7a02"
    },
    {
      "constant": false,
      "inputs": [
        {
          "name": "_proof",
          "type": "uint256[]"
        },
        {
          "name": "_inputs",
          "type": "uint256[]"
        },
        {
          "name": "_vkId",
          "type": "bytes32"
        },
        {
          "name": "_tokenId",
          "type": "uint256"
        },
        {
          "name": "_commitment",
          "type": "bytes32"
        }
      ],
      "name": "mint",
      "outputs": [],
      "payable": false,
      "stateMutability": "nonpayable",
      "type": "function",
      "signature": "0xeeb514e8"
    },
    {
      "constant": false,
      "inputs": [
        {
          "name": "_proof",
          "type": "uint256[]"
        },
        {
          "name": "_inputs",
          "type": "uint256[]"
        },
        {
          "name": "_vkId",
          "type": "bytes32"
        },
        {
          "name": "_root",
          "type": "bytes32"
        },
        {
          "name": "_nullifier",
          "type": "bytes32"
        },
        {
          "name": "_commitment",
          "type": "bytes32"
        }
      ],
      "name": "transfer",
      "outputs": [],
      "payable": false,
      "stateMutability": "nonpayable",
      "type": "function",
      "signature": "0x81b4e315"
    },
    {
      "constant": false,
      "inputs": [
        {
          "name": "_proof",
          "type": "uint256[]"
        },
        {
          "name": "_inputs",
          "type": "uint256[]"
        },
        {
          "name": "_vkId",
          "type": "bytes32"
        },
        {
          "name": "_root",
          "type": "bytes32"
        },
        {
          "name": "_nullifier",
          "type": "bytes32"
        },
        {
          "name": "_tokenId",
          "type": "uint256"
        },
        {
          "name": "_payTo",
          "type": "uint256"
        }
      ],
      "name": "burn",
      "outputs": [],
      "payable": false,
      "stateMutability": "nonpayable",
      "type": "function",
      "signature": "0x00a85d4c"
    }
  ],
  "bytecode": "0x60806040526020600155640100000000600255600480547fffffffffff00000000000000000000000000000000000000000000000000000016905534801561004657600080fd5b5060405160608061222c8339810180604052606081101561006657600080fd5b508051602080830151604090930151919291906100889033906100d5811b901c565b600080546001600160a01b03199081163317909155602980546001600160a01b03958616908316179055602a805493851693821693909317909255602b80549190931691161790556100f7565b600080546001600160a01b0319166001600160a01b0392909216919091179055565b612126806101066000396000f3fe608060405234801561001057600080fd5b506004361061018d5760003560e01c806381b4e315116100de578063cf04fb9411610097578063eeb514e811610071578063eeb514e81461065c578063f2fde38b14610726578063f64964fb1461074c578063fe7ee899146107545761018d565b8063cf04fb941461058d578063d7b0fef1146105b3578063dc52bf9f146105bb5761018d565b806381b4e3151461048057806386a23a6b146105505780638da5cb5b14610558578063a54557f314610560578063ae6dead714610568578063b2bdfa7b146105855761018d565b806343d726d61161014b5780635c8b80ab116101255780635c8b80ab1461042a5780635dd5de091461044757806369ae254a1461047057806376c601b1146104785761018d565b806343d726d61461041257806346657fe91461041a5780634b76fd6f146104225761018d565b8062a85d4c1461019257806301e3e915146102ce578063150b7a02146102e85780632997e86b146103c95780632b7ac3f3146103e657806330e69fc31461040a575b600080fd5b6102cc600480360360e08110156101a857600080fd5b810190602081018135600160201b8111156101c257600080fd5b8201836020820111156101d457600080fd5b803590602001918460208302840111600160201b831117156101f557600080fd5b9190808060200260200160405190810160405280939291908181526020018383602002808284376000920191909152509295949360208101935035915050600160201b81111561024457600080fd5b82018360208201111561025657600080fd5b803590602001918460208302840111600160201b8311171561027757600080fd5b919080806020026020016040519081016040528093929190818152602001838360200280828437600092019190915250929550508235935050506020810135906040810135906060810135906080013561075c565b005b6102d6610bef565b60408051918252519081900360200190f35b6103ac600480360360808110156102fe57600080fd5b6001600160a01b03823581169260208101359091169160408201359190810190608081016060820135600160201b81111561033857600080fd5b82018360208201111561034a57600080fd5b803590602001918460018302840111600160201b8311171561036b57600080fd5b91908080601f016020809104026020016040519081016040528093929190818152602001838380828437600092019190915250929550610bf5945050505050565b604080516001600160e01b03199092168252519081900360200190f35b6102d6600480360360208110156103df57600080fd5b5035610c19565b6103ee610c2b565b604080516001600160a01b039092168252519081900360200190f35b6102d6610c3a565b6102cc610c40565b6103ee610ca8565b6102d6610cb7565b6102d66004803603602081101561044057600080fd5b5035610cbd565b6102cc6004803603606081101561045d57600080fd5b5080359060208101359060400135610f23565b6102d6611244565b6102d661124a565b6102cc600480360360c081101561049657600080fd5b810190602081018135600160201b8111156104b057600080fd5b8201836020820111156104c257600080fd5b803590602001918460208302840111600160201b831117156104e357600080fd5b919390929091602081019035600160201b81111561050057600080fd5b82018360208201111561051257600080fd5b803590602001918460208302840111600160201b8311171561053357600080fd5b919350915080359060208101359060408101359060600135611250565b6103ee611665565b6103ee611674565b6103ee611683565b6102d66004803603602081101561057e57600080fd5b5035611692565b6103ee6116a4565b6102cc600480360360208110156105a357600080fd5b50356001600160a01b03166116b3565b6102d6611760565b6102d6600480360360208110156105d157600080fd5b810190602081018135600160201b8111156105eb57600080fd5b8201836020820111156105fd57600080fd5b803590602001918460208302840111600160201b8311171561061e57600080fd5b919080806020026020016040519081016040528093929190818152602001838360200280828437600092019190915250929550611766945050505050565b6102cc600480360360a081101561067257600080fd5b810190602081018135600160201b81111561068c57600080fd5b82018360208201111561069e57600080fd5b803590602001918460208302840111600160201b831117156106bf57600080fd5b919390929091602081019035600160201b8111156106dc57600080fd5b8201836020820111156106ee57600080fd5b803590602001918460208302840111600160201b8311171561070f57600080fd5b919350915080359060208101359060400135611abf565b6102cc6004803603602081101561073c57600080fd5b50356001600160a01b0316611e50565b6102d6611f14565b6103ee611f1a565b60005a9050602e5486146107ae5760408051600160e51b62461bcd02815260206004820152600e6024820152600160921b6d125b98dbdc9c9958dd081d9ad25902604482015290519081900360640190fd5b60006008886000815181106107bf57fe5b602002602001015160001b901b905060006008600288888888604051602001808581526020018481526020018381526020018281526020019450505050506040516020818303038152906040526040518082805190602001908083835b6020831061083b5780518252601f19909201916020918201910161081c565b51815160209384036101000a60001901801990921691161790526040519190930194509192505080830381855afa15801561087a573d6000803e3d6000fd5b5050506040513d602081101561088f57600080fd5b5051901b905060ff19808216908316146108dd57604051600160e51b62461bcd0281526004018080602001828103825260248152602001806120d76024913960400191505060405180910390fd5b60005a840390505a93506000602a60009054906101000a90046001600160a01b03166001600160a01b0316634292dc3e8d8d8d6040518463ffffffff1660e01b8152600401808060200180602001848152602001838103835286818151815260200191508051906020019060200280838360005b83811015610969578181015183820152602001610951565b50505050905001838103825285818151815260200191508051906020019060200280838360005b838110156109a8578181015183820152602001610990565b5050505090500195505050505050602060405180830381600087803b1580156109d057600080fd5b505af11580156109e4573d6000803e3d6000fd5b505050506040513d60208110156109fa57600080fd5b5051905080610a3d57604051600160e51b62461bcd02815260040180806020018281038252602f815260200180612041602f913960400191505060405180910390fd5b60005a860390505a60008b8152602760205260409020549096508a14610a9757604051600160e51b62461bcd02815260040180806020018281038252603981526020018061209e6039913960400191505060405180910390fd5b60008981526026602052604090205415610ae557604051600160e51b62461bcd02815260040180806020018281038252603681526020018061200b6036913960400191505060405180910390fd5b6000898152602660205260408082208b9055602b548151600160e11b63214217070281523060048201526001600160a01b03808c166024830152604482018d905292518b9493909216926342842e0e9260648084019382900301818387803b158015610b5057600080fd5b505af1158015610b64573d6000803e3d6000fd5b5050604080518d815290517f420254109828776b447479904f63ffd7cdc8e80c46a6a41400cc8674d9dab90d9350908190036020019150a15a604080519589019190910380865260208601849052815190957f853720e5a853f80d6ab997d85a0ddd977b89b1e70cc4a1303975d10974c60e1592908290030190a15050505050505050505050505050565b60015481565b60006040518080611fb9602f913960405190819003602f0190209695505050505050565b60266020526000908152604090205481565b602a546001600160a01b031681565b60035481565b610c48611674565b6001600160a01b0316336001600160a01b031614610c9a57604051600160e51b62461bcd02815260040180806020018281038252602e815260200180612070602e913960400191505060405180910390fd5b6000546001600160a01b0316ff5b602a546001600160a01b031690565b602e5481565b600060035460025411610d0457604051600160e51b62461bcd028152600401808060200182810382526023815260200180611fe86023913960400191505060405180910390fd5b6000610d11600354611f29565b6002546003549192500160001901602884901b600080610d2f611f9a565b6000805b600154811015610ec45787811415610d6d578560058960218110610d5357fe5b0180546001600160d81b03191660289290921c9190911790555b60028706610e285760058160218110610d8257fe5b015460405160289190911b808252601b820188905295508694506020846036836002600019fa9250828015610db657610db8565bfe5b505082516040805164ffffffffff1988811682528716602082015280820183905260026000199a909a019990990460608a018190529051909860289290921b97507fc84edbd4893d9f5e7f1a0e9cef31bc608e285b8683036b7b0c62346c9785b60d9181900360800190a1610ebc565b60045460405187815260289190911b601b820181905287965094506020846036836002600019fa9250828015610db657505082516040805164ffffffffff19888116825287166020820152808201839052600290990460608a018190529051909860289290921b97507fc84edbd4893d9f5e7f1a0e9cef31bc608e285b8683036b7b0c62346c9785b60d9181900360800190a15b600101610d33565b50815160035460408051918252602082018c9052818101839052519199507f6a82ba2aa1d2c039c41e6e2b5a5a1090d09906f060d32af9c1ac0beff7af75c0919081900360600190a1505060038054600101905550505050505b919050565b610f2b611674565b6001600160a01b0316336001600160a01b031614610f7d57604051600160e51b62461bcd02815260040180806020018281038252602e815260200180612070602e913960400191505060405180910390fd5b60295460408051600160e21b63340104b70281526004810186905290516001600160a01b039092169163d00412dc91602480820192602092909190829003018186803b158015610fcc57600080fd5b505afa158015610fe0573d6000803e3d6000fd5b505050506040513d6020811015610ff657600080fd5b5051831461104e5760408051600160e51b62461bcd02815260206004820152601960248201527f4d696e7420766b4964206e6f7420726567697374657265642e00000000000000604482015290519081900360640190fd5b60295460408051600160e21b63340104b70281526004810185905290516001600160a01b039092169163d00412dc91602480820192602092909190829003018186803b15801561109d57600080fd5b505afa1580156110b1573d6000803e3d6000fd5b505050506040513d60208110156110c757600080fd5b5051821461111f5760408051600160e51b62461bcd02815260206004820152601d60248201527f5472616e7366657220766b4964206e6f7420726567697374657265642e000000604482015290519081900360640190fd5b60295460408051600160e21b63340104b70281526004810184905290516001600160a01b039092169163d00412dc91602480820192602092909190829003018186803b15801561116e57600080fd5b505afa158015611182573d6000803e3d6000fd5b505050506040513d602081101561119857600080fd5b505181146111f05760408051600160e51b62461bcd02815260206004820152601960248201527f4275726e20766b4964206e6f7420726567697374657265642e00000000000000604482015290519081900360640190fd5b602c839055602d829055602e819055604080518481526020810184905280820183905290517f1f8f16ca5111548c9fdc797c50a49b5f07f4fa15595b6c53f497d029554197e59181900360600190a1505050565b602c5481565b60025481565b60005a9050602d5485146112a25760408051600160e51b62461bcd02815260206004820152600e6024820152600160921b6d125b98dbdc9c9958dd081d9ad25902604482015290519081900360640190fd5b60006008888860008181106112b357fe5b9050602002013560001b901b90506000600860028787876040516020018084815260200183815260200182815260200193505050506040516020818303038152906040526040518082805190602001908083835b602083106113265780518252601f199092019160209182019101611307565b51815160209384036101000a60001901801990921691161790526040519190930194509192505080830381855afa158015611365573d6000803e3d6000fd5b5050506040513d602081101561137a57600080fd5b5051901b905060ff19808216908316146113c857604051600160e51b62461bcd0281526004018080602001828103825260248152602001806120d76024913960400191505060405180910390fd5b60005a840390505a93506000602a60009054906101000a90046001600160a01b03166001600160a01b0316634292dc3e8e8e8e8e8e6040518663ffffffff1660e01b81526004018080602001806020018481526020018381038352888882818152602001925060200280828437600083820152601f01601f19169091018481038352868152602090810191508790870280828437600081840152601f19601f820116905080830192505050975050505050505050602060405180830381600087803b15801561149657600080fd5b505af11580156114aa573d6000803e3d6000fd5b505050506040513d60208110156114c057600080fd5b505190508061150357604051600160e51b62461bcd02815260040180806020018281038252602f815260200180612041602f913960400191505060405180910390fd5b60005a860390505a6000898152602660205260409020549096501561155c57604051600160e51b62461bcd02815260040180806020018281038252603681526020018061200b6036913960400191505060405180910390fd5b60008981526027602052604090205489146115ab57604051600160e51b62461bcd02815260040180806020018281038252603981526020018061209e6039913960400191505060405180910390fd5b60008881526026602052604090208890556115c587610cbd565b60288190556000818152602760209081526040918290209290925580518a815290517f9e55abecb30e7109f17dacd0677f78dfca1814ad879657087c2d54e9a7fb5eb4929181900390910190a15a604080519488019190910380855260208501839052815190947f853720e5a853f80d6ab997d85a0ddd977b89b1e70cc4a1303975d10974c60e1592908290030190a15050505050505050505050505050565b6029546001600160a01b031681565b6000546001600160a01b031690565b602b546001600160a01b031690565b60276020526000908152604090205481565b6000546001600160a01b031681565b6116bb611674565b6001600160a01b0316336001600160a01b03161461170d57604051600160e51b62461bcd02815260040180806020018281038252602e815260200180612070602e913960400191505060405180910390fd5b602a80546001600160a01b0383166001600160a01b0319909116811790915560408051918252517eaccbf0787bf565863b49aef6d6d8ff2f631f1da95c76e016aed7a21a11a7b79181900360200190a150565b60285481565b60008082519050600354600254116117b257604051600160e51b62461bcd028152600401808060200182810382526023815260200180611fe86023913960400191505060405180910390fd5b600354600254038111156117f05760035460025403810360005b818110156117e45784516000190185526001016117cc565b50600354600254039150505b6000806000806000611800611f9a565b6003546000905b886003540181101561195d5760288b60035483038151811061182557fe5b6020026020010151901b95506001600254820103965061184481611f29565b97508761187757856005896021811061185957fe5b0180546001600160d81b03191660289290921c919091179055611955565b60015b88811161192c57600288066118e4576005600182036021811061189957fe5b015460405160289190911b808252601b820189905296508795506020856036836002600019fa9350838015610db65750508351600260001999909901989098049760281b9650611924565b60045460405188815260289190911b601b820181905288975095506020856036836002600019fa9350838015610db6575050835160029098049760281b96505b60010161187a565b50856005896021811061193b57fe5b0180546001600160d81b03191660289290921c9190911790555b600101611807565b50600187015b6001548111611a1757600287066119cf576005600182036021811061198457fe5b015460405160289190911b808252601b820188905295508694506020846036836002600019fa9250828015610db65750508251600260001998909801979097049660281b9550611a0f565b60045460405187815260289190911b601b820181905287965094506020846036836002600019fa9250828015610db6575050825160029097049660281b95505b600101611963565b50816000602002015198507f8ec50f97970775682a68d3c6f9caedf60fd82448ea40706b8b65d6c03648b9226003548b8b6040518084815260200180602001838152602001828103825284818151815260200191508051906020019060200280838360005b83811015611a94578181015183820152602001611a7c565b5050505090500194505050505060405180910390a15050600380549096019095555050505050919050565b60005a9050602c548414611b115760408051600160e51b62461bcd02815260206004820152600e6024820152600160921b6d125b98dbdc9c9958dd081d9ad25902604482015290519081900360640190fd5b6000600887876000818110611b2257fe5b9050602002013560001b901b9050600060086002868660405160200180838152602001828152602001925050506040516020818303038152906040526040518082805190602001908083835b60208310611b8d5780518252601f199092019160209182019101611b6e565b51815160209384036101000a60001901801990921691161790526040519190930194509192505080830381855afa158015611bcc573d6000803e3d6000fd5b5050506040513d6020811015611be157600080fd5b5051901b905060ff1980821690831614611c2f57604051600160e51b62461bcd0281526004018080602001828103825260248152602001806120d76024913960400191505060405180910390fd5b60005a840390505a602a54604051600160e11b6321496e1f028152604481018a9052606060048201908152606482018e90529296506000926001600160a01b0390921691634292dc3e918f918f918f918f918f919081906024810190608401886020890280828437600083820152601f01601f19169091018481038352868152602090810191508790870280828437600081840152601f19601f820116905080830192505050975050505050505050602060405180830381600087803b158015611cf857600080fd5b505af1158015611d0c573d6000803e3d6000fd5b505050506040513d6020811015611d2257600080fd5b5051905080611d6557604051600160e51b62461bcd02815260040180806020018281038252602f815260200180612041602f913960400191505060405180910390fd5b60005a860390505a9550611d7887610cbd565b602881905560008181526027602052604080822092909255602b548251600160e11b6321421707028152336004820152306024820152604481018c905292516001600160a01b03909116926342842e0e92606480830193919282900301818387803b158015611de657600080fd5b505af1158015611dfa573d6000803e3d6000fd5b505050505a604080519488019190910380855260208501839052815190947f853720e5a853f80d6ab997d85a0ddd977b89b1e70cc4a1303975d10974c60e1592908290030190a150505050505050505050505050565b611e58611674565b6001600160a01b0316336001600160a01b031614611eaa57604051600160e51b62461bcd02815260040180806020018281038252602e815260200180612070602e913960400191505060405180910390fd5b6001600160a01b038116611ebd57600080fd5b7f8be0079c531659141344cd1fd0a4f28419497f9722a3daafe3b4186f6b6457e0611ee6611674565b604080516001600160a01b03928316815291841660208301528051918290030190a1611f1181611f78565b50565b602d5481565b602b546001600160a01b031681565b60006002820660011415610f1e576001600260045b83611f70578082866001010381611f5157fe5b06611f5e57829350611f6b565b60019283019290915081901b5b611f3e565b505050919050565b600080546001600160a01b0319166001600160a01b0392909216919091179055565b6040518060200160405280600190602082028038833950919291505056fe6f6e455243373231526563656976656428616464726573732c616464726573732c75696e743235362c6279746573295468657265206973206e6f207370616365206c65667420696e2074686520747265652e54686520636f6d6d69746d656e74206265696e67207370656e742068617320616c7265616479206265656e206e756c6c6966696564215468652070726f6f6620686173206e6f74206265656e2076657269666965642062792074686520636f6e7472616374596f7520617265206e6f7420617574686f726973656420746f20696e766f6b6520746869732066756e6374696f6e54686520696e70757420726f6f7420686173206e65766572206265656e2074686520726f6f74206f6620746865204d65726b6c6520547265657075626c6963496e707574486173682063616e6e6f74206265207265636f6e63696c6564a165627a7a723058204f170a1e85f86cd11a4c9dce52f0a779d8a69502425422177d459ac857968cc80029",
  "source": "/**\nContract to enable the management of hidden non fungible toke transactions.\n@Author Westlad, Chaitanya-Konda, iAmMichaelConnor\n*/\npragma solidity ^0.5.8;\n\nimport \"./Ownable.sol\";\nimport \"./MerkleTree.sol\";\nimport \"./Verifier_Registry.sol\"; //we import the implementation to have visibility of its 'getters'\nimport \"./Verifier_Interface.sol\";\nimport \"./ERC721Interface.sol\";\n\ncontract NFTokenShield is Ownable, MerkleTree {\n    // Observers may wish to listen for nullification of commitments:\n    event Transfer(bytes32 nullifier);\n    event Burn(bytes32 nullifier);\n\n    // Observers may wish to listen for zkSNARK-related changes:\n    event VerifierChanged(address newVerifierContract);\n    event VkIdsChanged(bytes32 mintVkId, bytes32 transferVkId, bytes32 burnVkId);\n\n    // For testing only. This SHOULD be deleted before mainnet deployment:\n    event GasUsed(uint256 byShieldContract, uint256 byVerifierContract);\n\n    mapping(bytes32 => bytes32) public nullifiers; // store nullifiers of spent commitments\n    mapping(bytes32 => bytes32) public roots; // holds each root we've calculated so that we can pull the one relevant to the prover\n\n    bytes32 public latestRoot; //holds the index for the latest root so that the prover can provide it later and this contract can look up the relevant root\n\n    Verifier_Registry public verifierRegistry; //the Verifier Registry contract\n    Verifier_Interface public verifier; //the verification smart contract\n    ERC721Interface public nfToken; //the NFToken ERC-721 token contract\n\n    // following registration of the vkId's with the Verifier Registry, we hard code their vkId's in setVkIds\n    bytes32 public mintVkId;\n    bytes32 public transferVkId;\n    bytes32 public burnVkId;\n\n    constructor(address _verifierRegistry, address _verifier, address _nfToken) public {\n        _owner = msg.sender;\n        verifierRegistry = Verifier_Registry(_verifierRegistry);\n        verifier = Verifier_Interface(_verifier);\n        nfToken = ERC721Interface(_nfToken);\n    }\n\n    /**\n    self destruct\n    */\n    function close() external onlyOwner {\n        selfdestruct(address(uint160(_owner)));\n    }\n\n    /**\n    function to change the address of the underlying Verifier contract\n    */\n    function changeVerifier(address _verifier) external onlyOwner {\n        verifier = Verifier_Interface(_verifier);\n        emit VerifierChanged(_verifier);\n    }\n\n    /**\n    returns the verifier-interface contract address that this shield contract is calling\n    */\n    function getVerifier() external view returns(address) {\n        return address(verifier);\n    }\n\n    /**\n    Sets the vkIds (as registered with the Verifier Registry) which correspond to 'mint', 'transfer' and 'burn' computations respectively\n    */\n    function setVkIds(bytes32 _mintVkId, bytes32 _transferVkId, bytes32 _burnVkId) external onlyOwner {\n        // ensure the vkId's have been registered:\n        require(_mintVkId == verifierRegistry.getVkEntryVkId(_mintVkId), \"Mint vkId not registered.\");\n        require(_transferVkId == verifierRegistry.getVkEntryVkId(_transferVkId), \"Transfer vkId not registered.\");\n        require(_burnVkId == verifierRegistry.getVkEntryVkId(_burnVkId), \"Burn vkId not registered.\");\n\n        // store the vkIds\n        mintVkId = _mintVkId;\n        transferVkId = _transferVkId;\n        burnVkId = _burnVkId;\n\n        emit VkIdsChanged(mintVkId, transferVkId, burnVkId);\n    }\n\n    /**\n    returns the ERC-721 contract address that this shield contract is calling\n    */\n    function getNFToken() public view returns(address){\n        return address(nfToken);\n    }\n\n    /**\n    * SafeTransferFrom implementation of ERC-721 contract checks the return value of onERC721Received of tokenShield contract.\n    * If the correct value is not returned, then the transferFrom() function is rolled back as it has been  determined that the _to does not\n    * implement the expected interface.\n    * The correct value is Returns `bytes4(keccak256(\"onERC721Received(address,uint256,bytes)\"))`\n    */\n    function onERC721Received(address, address, uint256, bytes memory) public pure returns (bytes4) {\n        return bytes4(keccak256(\"onERC721Received(address,address,uint256,bytes)\"));\n    }\n\n    /**\n    The mint function creates ('mints') a new commitment and stores it in the merkleTree\n    */\n    function mint(uint256[] calldata _proof, uint256[] calldata _inputs, bytes32 _vkId, uint256 _tokenId, bytes32 _commitment) external {\n\n        // gas measurement:\n        uint256 gasCheckpoint = gasleft();\n\n        require(_vkId == mintVkId, \"Incorrect vkId\");\n\n        // Check that the publicInputHash equals the hash of the 'public inputs':\n        bytes31 publicInputHash = bytes31(bytes32(_inputs[0])<<8);\n        bytes31 publicInputHashCheck = bytes31(sha256(abi.encodePacked(_tokenId, _commitment))<<8);\n        require(publicInputHashCheck == publicInputHash, \"publicInputHash cannot be reconciled\");\n\n        // gas measurement:\n        uint256 gasUsedByShieldContract = gasCheckpoint - gasleft();\n        gasCheckpoint = gasleft();\n\n        // verify the proof\n        bool result = verifier.verify(_proof, _inputs, _vkId);\n        require(result, \"The proof has not been verified by the contract\");\n\n        // gas measurement:\n        uint256 gasUsedByVerifierContract = gasCheckpoint - gasleft();\n        gasCheckpoint = gasleft();\n\n        // update contract states\n        latestRoot = insertLeaf(_commitment); // recalculate the root of the merkleTree as it's now different\n        roots[latestRoot] = latestRoot; // and save the new root to the list of roots\n\n        // Finally, transfer token from the sender to this contract address\n        nfToken.safeTransferFrom(msg.sender, address(this), _tokenId);\n\n        // gas measurement:\n        gasUsedByShieldContract = gasUsedByShieldContract + gasCheckpoint - gasleft();\n        emit GasUsed(gasUsedByShieldContract, gasUsedByVerifierContract);\n    }\n\n    /**\n    The transfer function transfers a commitment to a new owner\n    */\n    function transfer(uint256[] calldata _proof, uint256[] calldata _inputs, bytes32 _vkId, bytes32 _root, bytes32 _nullifier, bytes32 _commitment) external {\n\n        // gas measurement:\n        uint256 gasCheckpoint = gasleft();\n\n        require(_vkId == transferVkId, \"Incorrect vkId\");\n\n        // Check that the publicInputHash equals the hash of the 'public inputs':\n        bytes31 publicInputHash = bytes31(bytes32(_inputs[0])<<8);\n        bytes31 publicInputHashCheck = bytes31(sha256(abi.encodePacked(_root, _nullifier, _commitment))<<8);\n        require(publicInputHashCheck == publicInputHash, \"publicInputHash cannot be reconciled\");\n\n        // gas measurement:\n        uint256 gasUsedByShieldContract = gasCheckpoint - gasleft();\n        gasCheckpoint = gasleft();\n\n        // verify the proof\n        bool result = verifier.verify(_proof, _inputs, _vkId);\n        require(result, \"The proof has not been verified by the contract\");\n\n        // gas measurement:\n        uint256 gasUsedByVerifierContract = gasCheckpoint - gasleft();\n        gasCheckpoint = gasleft();\n\n        // check inputs vs on-chain states\n        require(nullifiers[_nullifier] == 0, \"The commitment being spent has already been nullified!\");\n        require(roots[_root] == _root, \"The input root has never been the root of the Merkle Tree\");\n\n        // update contract states\n        nullifiers[_nullifier] = _nullifier; // remember we spent it\n\n        latestRoot = insertLeaf(_commitment); // recalculate the root of the merkleTree as it's now different\n        roots[latestRoot] = latestRoot; // and save the new root to the list of roots\n\n        emit Transfer(_nullifier);\n\n        // gas measurement:\n        gasUsedByShieldContract = gasUsedByShieldContract + gasCheckpoint - gasleft();\n        emit GasUsed(gasUsedByShieldContract, gasUsedByVerifierContract);\n    }\n\n    /**\n    The burn function burns a commitment and transfers the asset held within the commiment to the address payTo\n    */\n    function burn(uint256[] memory _proof, uint256[] memory _inputs, bytes32 _vkId, bytes32 _root, bytes32 _nullifier, uint256 _tokenId, uint256 _payTo) public {\n\n        // gas measurement:\n        uint256 gasCheckpoint = gasleft();\n\n        require(_vkId == burnVkId, \"Incorrect vkId\");\n\n        // Check that the publicInputHash equals the hash of the 'public inputs':\n        bytes31 publicInputHash = bytes31(bytes32(_inputs[0])<<8);\n        bytes31 publicInputHashCheck = bytes31(sha256(abi.encodePacked(_root, _nullifier, _tokenId, _payTo))<<8); // Note that although _payTo represents an address, we have declared it as a uint256. This is because we want it to be abi-encoded as a bytes32 (left-padded with zeros) so as to match the padding in the hash calculation performed within the zokrates proof.\n        require(publicInputHashCheck == publicInputHash, \"publicInputHash cannot be reconciled\");\n\n        // gas measurement:\n        uint256 gasUsedByShieldContract = gasCheckpoint - gasleft();\n        gasCheckpoint = gasleft();\n\n        // verify the proof\n        bool result = verifier.verify(_proof, _inputs, _vkId);\n        require(result, \"The proof has not been verified by the contract\");\n\n        // gas measurement:\n        uint256 gasUsedByVerifierContract = gasCheckpoint - gasleft();\n        gasCheckpoint = gasleft();\n\n        // check inputs vs on-chain states\n        require(roots[_root] == _root, \"The input root has never been the root of the Merkle Tree\");\n        require(nullifiers[_nullifier]==0, \"The commitment being spent has already been nullified!\");\n\n        // update contract states\n        nullifiers[_nullifier] = _nullifier; //add the nullifier to the list of nullifiers\n\n        //Finally, transfer NFToken from this contract address to the nominated address\n        address payToAddress = address(_payTo); // we passed _payTo as a uint256, to ensure the packing was correct within the sha256() above\n        nfToken.safeTransferFrom(address(this), payToAddress, _tokenId);\n\n        emit Burn(_nullifier);\n\n        // gas measurement:\n        gasUsedByShieldContract = gasUsedByShieldContract + gasCheckpoint - gasleft();\n        emit GasUsed(gasUsedByShieldContract, gasUsedByVerifierContract);\n    }\n}\n",
  "sourcePath": "/truffle/contracts/NFTokenShield.sol",
  "compiler": {
    "name": "solc",
    "version": "0.5.8+commit.23d335f2.Emscripten.clang"
  },
  "schemaVersion": "3.0.5",
  "updatedAt": "2020-01-03T16:19:26.126Z",
  "devdoc": {
    "methods": {
      "insertLeaf(bytes32)": {
        "params": {
          "leafValue": "- the value of the leaf being inserted."
        },
        "return": "bytes32 - the root of the merkle tree, after the insert."
      },
      "insertLeaves(bytes32[])": {
        "params": {
          "leafValues": "- the values of the leaves being inserted."
        },
        "return": "bytes32[] - the root of the merkle tree, after all the inserts."
      },
      "owner()": {
        "details": "Tells the address of the owner",
        "return": "the address of the owner"
      },
      "transferOwnership(address)": {
        "details": "Allows the current owner to transfer control of the contract to a newOwner.",
        "params": {
          "newOwner": "The address to transfer ownership to."
        }
      }
    }
  },
  "userdoc": {
    "methods": {
      "burn(uint256[],uint256[],bytes32,bytes32,bytes32,uint256,uint256)": {
        "notice": "The burn function burns a commitment and transfers the asset held within the commiment to the address payTo"
      },
      "changeVerifier(address)": {
        "notice": "function to change the address of the underlying Verifier contract"
      },
      "close()": {
        "notice": "self destruct"
      },
      "getNFToken()": {
        "notice": "returns the ERC-721 contract address that this shield contract is calling"
      },
      "getVerifier()": {
        "notice": "returns the verifier-interface contract address that this shield contract is calling"
      },
      "insertLeaf(bytes32)": {
        "notice": "Insert a leaf into the Merkle Tree, update the root, and update any values in the (persistently stored) frontier."
      },
      "insertLeaves(bytes32[])": {
        "notice": "Insert multiple leaves into the Merkle Tree, and then update the root, and update any values in the (persistently stored) frontier."
      },
      "mint(uint256[],uint256[],bytes32,uint256,bytes32)": {
        "notice": "The mint function creates ('mints') a new commitment and stores it in the merkleTree"
      },
      "onERC721Received(address,address,uint256,bytes)": {
        "notice": "SafeTransferFrom implementation of ERC-721 contract checks the return value of onERC721Received of tokenShield contract. If the correct value is not returned, then the transferFrom() function is rolled back as it has been  determined that the _to does not implement the expected interface. The correct value is Returns `bytes4(keccak256(\"onERC721Received(address,uint256,bytes)\"))`"
      },
      "setVkIds(bytes32,bytes32,bytes32)": {
        "notice": "Sets the vkIds (as registered with the Verifier Registry) which correspond to 'mint', 'transfer' and 'burn' computations respectively"
      },
      "transfer(uint256[],uint256[],bytes32,bytes32,bytes32,bytes32)": {
        "notice": "The transfer function transfers a commitment to a new owner"
      }
    }
  }
}